{
  "_format": "hh-sol-artifact-1",
  "contractName": "FlagEscalator",
  "sourceName": "contracts/FlagEscalator.sol",
  "abi": [
    {
      "inputs": [
        {
          "internalType": "address",
          "name": "_moderationLog",
          "type": "address"
        }
      ],
      "stateMutability": "nonpayable",
      "type": "constructor"
    },
    {
      "anonymous": false,
      "inputs": [
        {
          "indexed": true,
          "internalType": "bytes32",
          "name": "postHash",
          "type": "bytes32"
        },
        {
          "indexed": false,
          "internalType": "string",
          "name": "method",
          "type": "string"
        }
      ],
      "name": "Escalated",
      "type": "event"
    },
    {
      "anonymous": false,
      "inputs": [
        {
          "indexed": true,
          "internalType": "bytes32",
          "name": "postHash",
          "type": "bytes32"
        },
        {
          "indexed": true,
          "internalType": "address",
          "name": "user",
          "type": "address"
        }
      ],
      "name": "PostFlagged",
      "type": "event"
    },
    {
      "inputs": [],
      "name": "THRESHOLD",
      "outputs": [
        {
          "internalType": "uint256",
          "name": "",
          "type": "uint256"
        }
      ],
      "stateMutability": "view",
      "type": "function"
    },
    {
      "inputs": [],
      "name": "aiAgent",
      "outputs": [
        {
          "internalType": "address",
          "name": "",
          "type": "address"
        }
      ],
      "stateMutability": "view",
      "type": "function"
    },
    {
      "inputs": [
        {
          "internalType": "bytes32",
          "name": "postHash",
          "type": "bytes32"
        }
      ],
      "name": "aiEscalate",
      "outputs": [],
      "stateMutability": "nonpayable",
      "type": "function"
    },
    {
      "inputs": [
        {
          "internalType": "bytes32",
          "name": "",
          "type": "bytes32"
        }
      ],
      "name": "burnCounts",
      "outputs": [
        {
          "internalType": "uint256",
          "name": "",
          "type": "uint256"
        }
      ],
      "stateMutability": "view",
      "type": "function"
    },
    {
      "inputs": [
        {
          "internalType": "bytes32",
          "name": "postHash",
          "type": "bytes32"
        }
      ],
      "name": "burnFlag",
      "outputs": [],
      "stateMutability": "nonpayable",
      "type": "function"
    },
    {
      "inputs": [
        {
          "internalType": "bytes32",
          "name": "",
          "type": "bytes32"
        }
      ],
      "name": "escalated",
      "outputs": [
        {
          "internalType": "bool",
          "name": "",
          "type": "bool"
        }
      ],
      "stateMutability": "view",
      "type": "function"
    },
    {
      "inputs": [
        {
          "internalType": "bytes32",
          "name": "postHash",
          "type": "bytes32"
        }
      ],
      "name": "getBurnCount",
      "outputs": [
        {
          "internalType": "uint256",
          "name": "",
          "type": "uint256"
        }
      ],
      "stateMutability": "view",
      "type": "function"
    },
    {
      "inputs": [
        {
          "internalType": "bytes32",
          "name": "",
          "type": "bytes32"
        },
        {
          "internalType": "address",
          "name": "",
          "type": "address"
        }
      ],
      "name": "hasFlagged",
      "outputs": [
        {
          "internalType": "bool",
          "name": "",
          "type": "bool"
        }
      ],
      "stateMutability": "view",
      "type": "function"
    },
    {
      "inputs": [
        {
          "internalType": "bytes32",
          "name": "postHash",
          "type": "bytes32"
        }
      ],
      "name": "isEscalated",
      "outputs": [
        {
          "internalType": "bool",
          "name": "",
          "type": "bool"
        }
      ],
      "stateMutability": "view",
      "type": "function"
    },
    {
      "inputs": [],
      "name": "moderationLog",
      "outputs": [
        {
          "internalType": "contract IModerationLog",
          "name": "",
          "type": "address"
        }
      ],
      "stateMutability": "view",
      "type": "function"
    },
    {
      "inputs": [],
      "name": "owner",
      "outputs": [
        {
          "internalType": "address",
          "name": "",
          "type": "address"
        }
      ],
      "stateMutability": "view",
      "type": "function"
    },
    {
      "inputs": [
        {
          "internalType": "address",
          "name": "_aiAgent",
          "type": "address"
        }
      ],
      "name": "setAI",
      "outputs": [],
      "stateMutability": "nonpayable",
      "type": "function"
    }
  ],
  "bytecode": "0x60806040523480156200001157600080fd5b50604051620012be380380620012be833981810160405281019062000037919062000129565b806000806101000a81548173ffffffffffffffffffffffffffffffffffffffff021916908373ffffffffffffffffffffffffffffffffffffffff16021790555033600560006101000a81548173ffffffffffffffffffffffffffffffffffffffff021916908373ffffffffffffffffffffffffffffffffffffffff160217905550506200015b565b600080fd5b600073ffffffffffffffffffffffffffffffffffffffff82169050919050565b6000620000f182620000c4565b9050919050565b6200010381620000e4565b81146200010f57600080fd5b50565b6000815190506200012381620000f8565b92915050565b600060208284031215620001425762000141620000bf565b5b6000620001528482850162000112565b91505092915050565b611153806200016b6000396000f3fe608060405234801561001057600080fd5b50600436106100b35760003560e01c80635017334411610071578063501733441461019c578063624622f7146101ba578063785ffb37146101ea5780638da5cb5b14610208578063a6d5b73214610226578063e1a611de14610244576100b3565b80625fe140146100b85780630263e861146100d45780630f20e2b2146101045780630fc1bfc2146101345780634c820f01146101505780634d1d86091461016c575b600080fd5b6100d260048036038101906100cd9190610a25565b610274565b005b6100ee60048036038101906100e99190610a88565b610348565b6040516100fb9190610ad0565b60405180910390f35b61011e60048036038101906101199190610a88565b610372565b60405161012b9190610b04565b60405180910390f35b61014e60048036038101906101499190610a88565b61038f565b005b61016a60048036038101906101659190610a88565b610573565b005b61018660048036038101906101819190610a88565b6108e6565b6040516101939190610ad0565b60405180910390f35b6101a4610906565b6040516101b19190610b7e565b60405180910390f35b6101d460048036038101906101cf9190610a88565b61092a565b6040516101e19190610b04565b60405180910390f35b6101f2610942565b6040516101ff9190610b04565b60405180910390f35b610210610947565b60405161021d9190610ba8565b60405180910390f35b61022e61096d565b60405161023b9190610ba8565b60405180910390f35b61025e60048036038101906102599190610bc3565b610993565b60405161026b9190610ad0565b60405180910390f35b600560009054906101000a900473ffffffffffffffffffffffffffffffffffffffff1673ffffffffffffffffffffffffffffffffffffffff163373ffffffffffffffffffffffffffffffffffffffff1614610304576040517f08c379a00000000000000000000000000000000000000000000000000000000081526004016102fb90610c60565b60405180910390fd5b80600460006101000a81548173ffffffffffffffffffffffffffffffffffffffff021916908373ffffffffffffffffffffffffffffffffffffffff16021790555050565b60006002600083815260200190815260200160002060009054906101000a900460ff169050919050565b600060016000838152602001908152602001600020549050919050565b600460009054906101000a900473ffffffffffffffffffffffffffffffffffffffff1673ffffffffffffffffffffffffffffffffffffffff163373ffffffffffffffffffffffffffffffffffffffff161461041f576040517f08c379a000000000000000000000000000000000000000000000000000000000815260040161041690610ccc565b60405180910390fd5b6002600082815260200190815260200160002060009054906101000a900460ff1615610480576040517f08c379a000000000000000000000000000000000000000000000000000000000815260040161047790610d38565b60405180910390fd5b60016002600083815260200190815260200160002060006101000a81548160ff02191690831515021790555060008054906101000a900473ffffffffffffffffffffffffffffffffffffffff1673ffffffffffffffffffffffffffffffffffffffff1663035353b18260056040518363ffffffff1660e01b8152600401610508929190610e2a565b600060405180830381600087803b15801561052257600080fd5b505af1158015610536573d6000803e3d6000fd5b50505050807fd169a4914702c630afabb81c2d2a19d1d4dd21af545546dcda0b263a78745a9560405161056890610eb2565b60405180910390a250565b6003600082815260200190815260200160002060003373ffffffffffffffffffffffffffffffffffffffff1673ffffffffffffffffffffffffffffffffffffffff16815260200190815260200160002060009054906101000a900460ff1615610611576040517f08c379a000000000000000000000000000000000000000000000000000000000815260040161060890610f1e565b60405180910390fd5b6002600082815260200190815260200160002060009054906101000a900460ff1615610672576040517f08c379a000000000000000000000000000000000000000000000000000000000815260040161066990610d38565b60405180910390fd5b60016003600083815260200190815260200160002060003373ffffffffffffffffffffffffffffffffffffffff1673ffffffffffffffffffffffffffffffffffffffff16815260200190815260200160002060006101000a81548160ff021916908315150217905550600180600083815260200190815260200160002060008282546106fe9190610f6d565b9250508190555060008054906101000a900473ffffffffffffffffffffffffffffffffffffffff1673ffffffffffffffffffffffffffffffffffffffff1663035353b18260026040518363ffffffff1660e01b8152600401610761929190610fed565b600060405180830381600087803b15801561077b57600080fd5b505af115801561078f573d6000803e3d6000fd5b505050503373ffffffffffffffffffffffffffffffffffffffff16817fc2c2699172b769b916db45e9efe4ca7b190e5cfd0ed55d54ccf18060a0a6dd5d60405160405180910390a360036001600083815260200190815260200160002054106108e35760016002600083815260200190815260200160002060006101000a81548160ff02191690831515021790555060008054906101000a900473ffffffffffffffffffffffffffffffffffffffff1673ffffffffffffffffffffffffffffffffffffffff1663035353b18260056040518363ffffffff1660e01b815260040161087a929190611075565b600060405180830381600087803b15801561089457600080fd5b505af11580156108a8573d6000803e3d6000fd5b50505050807fd169a4914702c630afabb81c2d2a19d1d4dd21af545546dcda0b263a78745a956040516108da906110fd565b60405180910390a25b50565b60026020528060005260406000206000915054906101000a900460ff1681565b60008054906101000a900473ffffffffffffffffffffffffffffffffffffffff1681565b60016020528060005260406000206000915090505481565b600381565b600560009054906101000a900473ffffffffffffffffffffffffffffffffffffffff1681565b600460009054906101000a900473ffffffffffffffffffffffffffffffffffffffff1681565b60036020528160005260406000206020528060005260406000206000915091509054906101000a900460ff1681565b600080fd5b600073ffffffffffffffffffffffffffffffffffffffff82169050919050565b60006109f2826109c7565b9050919050565b610a02816109e7565b8114610a0d57600080fd5b50565b600081359050610a1f816109f9565b92915050565b600060208284031215610a3b57610a3a6109c2565b5b6000610a4984828501610a10565b91505092915050565b6000819050919050565b610a6581610a52565b8114610a7057600080fd5b50565b600081359050610a8281610a5c565b92915050565b600060208284031215610a9e57610a9d6109c2565b5b6000610aac84828501610a73565b91505092915050565b60008115159050919050565b610aca81610ab5565b82525050565b6000602082019050610ae56000830184610ac1565b92915050565b6000819050919050565b610afe81610aeb565b82525050565b6000602082019050610b196000830184610af5565b92915050565b6000819050919050565b6000610b44610b3f610b3a846109c7565b610b1f565b6109c7565b9050919050565b6000610b5682610b29565b9050919050565b6000610b6882610b4b565b9050919050565b610b7881610b5d565b82525050565b6000602082019050610b936000830184610b6f565b92915050565b610ba2816109e7565b82525050565b6000602082019050610bbd6000830184610b99565b92915050565b60008060408385031215610bda57610bd96109c2565b5b6000610be885828601610a73565b9250506020610bf985828601610a10565b9150509250929050565b600082825260208201905092915050565b7f4e6f74206f776e65720000000000000000000000000000000000000000000000600082015250565b6000610c4a600983610c03565b9150610c5582610c14565b602082019050919050565b60006020820190508181036000830152610c7981610c3d565b9050919050565b7f4e6f7420617574686f72697a6564204149000000000000000000000000000000600082015250565b6000610cb6601183610c03565b9150610cc182610c80565b602082019050919050565b60006020820190508181036000830152610ce581610ca9565b9050919050565b7f416c726561647920657363616c61746564000000000000000000000000000000600082015250565b6000610d22601183610c03565b9150610d2d82610cec565b602082019050919050565b60006020820190508181036000830152610d5181610d15565b9050919050565b610d6181610a52565b82525050565b7f4e487b7100000000000000000000000000000000000000000000000000000000600052602160045260246000fd5b60068110610da757610da6610d67565b5b50565b6000819050610db882610d96565b919050565b6000610dc882610daa565b9050919050565b610dd881610dbd565b82525050565b7f414920657363616c6174696f6e00000000000000000000000000000000000000600082015250565b6000610e14600d83610c03565b9150610e1f82610dde565b602082019050919050565b6000606082019050610e3f6000830185610d58565b610e4c6020830184610dcf565b8181036040830152610e5d81610e07565b90509392505050565b7f4149000000000000000000000000000000000000000000000000000000000000600082015250565b6000610e9c600283610c03565b9150610ea782610e66565b602082019050919050565b60006020820190508181036000830152610ecb81610e8f565b9050919050565b7f416c726561647920666c61676765640000000000000000000000000000000000600082015250565b6000610f08600f83610c03565b9150610f1382610ed2565b602082019050919050565b60006020820190508181036000830152610f3781610efb565b9050919050565b7f4e487b7100000000000000000000000000000000000000000000000000000000600052601160045260246000fd5b6000610f7882610aeb565b9150610f8383610aeb565b9250828201905080821115610f9b57610f9a610f3e565b5b92915050565b7f55736572206275726e20666c6167000000000000000000000000000000000000600082015250565b6000610fd7600e83610c03565b9150610fe282610fa1565b602082019050919050565b60006060820190506110026000830185610d58565b61100f6020830184610dcf565b818103604083015261102081610fca565b90509392505050565b7f4175746f2d7468726573686f6c64000000000000000000000000000000000000600082015250565b600061105f600e83610c03565b915061106a82611029565b602082019050919050565b600060608201905061108a6000830185610d58565b6110976020830184610dcf565b81810360408301526110a881611052565b90509392505050565b7f5468726573686f6c640000000000000000000000000000000000000000000000600082015250565b60006110e7600983610c03565b91506110f2826110b1565b602082019050919050565b60006020820190508181036000830152611116816110da565b905091905056fea26469706673582212202ace355d81e2ef854c873e9540e47bf007ac00049de21c90a883349daf3d950264736f6c63430008180033",
  "linkReferences": {},
  "deployedLinkReferences": {}
}