{
  "_format": "hh-sol-artifact-1",
  "contractName": "ModerationLog",
  "sourceName": "contracts/ModerationLog.sol",
  "abi": [
    {
      "anonymous": false,
      "inputs": [
        {
          "indexed": true,
          "internalType": "bytes32",
          "name": "postHash",
          "type": "bytes32"
        },
        {
          "indexed": false,
          "internalType": "enum ModerationLog.ActionType",
          "name": "action",
          "type": "uint8"
        },
        {
          "indexed": false,
          "internalType": "string",
          "name": "reason",
          "type": "string"
        },
        {
          "indexed": false,
          "internalType": "address",
          "name": "actor",
          "type": "address"
        }
      ],
      "name": "ModerationEvent",
      "type": "event"
    },
    {
      "inputs": [
        {
          "internalType": "bytes32",
          "name": "postHash",
          "type": "bytes32"
        }
      ],
      "name": "getAllActions",
      "outputs": [
        {
          "components": [
            {
              "internalType": "enum ModerationLog.ActionType",
              "name": "action",
              "type": "uint8"
            },
            {
              "internalType": "string",
              "name": "reason",
              "type": "string"
            },
            {
              "internalType": "address",
              "name": "actor",
              "type": "address"
            },
            {
              "internalType": "uint256",
              "name": "timestamp",
              "type": "uint256"
            }
          ],
          "internalType": "struct ModerationLog.ModerationEntry[]",
          "name": "",
          "type": "tuple[]"
        }
      ],
      "stateMutability": "view",
      "type": "function"
    },
    {
      "inputs": [
        {
          "internalType": "bytes32",
          "name": "postHash",
          "type": "bytes32"
        }
      ],
      "name": "getLatestAction",
      "outputs": [
        {
          "components": [
            {
              "internalType": "enum ModerationLog.ActionType",
              "name": "action",
              "type": "uint8"
            },
            {
              "internalType": "string",
              "name": "reason",
              "type": "string"
            },
            {
              "internalType": "address",
              "name": "actor",
              "type": "address"
            },
            {
              "internalType": "uint256",
              "name": "timestamp",
              "type": "uint256"
            }
          ],
          "internalType": "struct ModerationLog.ModerationEntry",
          "name": "",
          "type": "tuple"
        }
      ],
      "stateMutability": "view",
      "type": "function"
    },
    {
      "inputs": [
        {
          "internalType": "bytes32",
          "name": "postHash",
          "type": "bytes32"
        },
        {
          "internalType": "enum ModerationLog.ActionType",
          "name": "action",
          "type": "uint8"
        },
        {
          "internalType": "string",
          "name": "reason",
          "type": "string"
        }
      ],
      "name": "logAction",
      "outputs": [],
      "stateMutability": "nonpayable",
      "type": "function"
    },
    {
      "inputs": [
        {
          "internalType": "bytes32",
          "name": "",
          "type": "bytes32"
        },
        {
          "internalType": "uint256",
          "name": "",
          "type": "uint256"
        }
      ],
      "name": "postLogs",
      "outputs": [
        {
          "internalType": "enum ModerationLog.ActionType",
          "name": "action",
          "type": "uint8"
        },
        {
          "internalType": "string",
          "name": "reason",
          "type": "string"
        },
        {
          "internalType": "address",
          "name": "actor",
          "type": "address"
        },
        {
          "internalType": "uint256",
          "name": "timestamp",
          "type": "uint256"
        }
      ],
      "stateMutability": "view",
      "type": "function"
    }
  ],
  "bytecode": "0x608060405234801561001057600080fd5b506112ca806100206000396000f3fe608060405234801561001057600080fd5b506004361061004c5760003560e01c8063035353b1146100515780633470b3811461006d57806344b957fd1461009d578063ba317550146100cd575b600080fd5b61006b600480360381019061006691906108a4565b610100565b005b61008760048036038101906100829190610918565b610314565b6040516100949190610b09565b60405180910390f35b6100b760048036038101906100b29190610918565b6104ea565b6040516100c49190610c50565b60405180910390f35b6100e760048036038101906100e29190610c9e565b610688565b6040516100f79493929190610d55565b60405180910390f35b826000600581111561011557610114610945565b5b81600581111561012857610127610945565b5b03610168576040517f08c379a000000000000000000000000000000000000000000000000000000000815260040161015f90610ded565b60405180910390fd5b6000604051806080016040528086600581111561018857610187610945565b5b815260200185858080601f016020809104026020016040519081016040528093929190818152602001838380828437600081840152601f19601f8201169050808301925050505050505081526020013373ffffffffffffffffffffffffffffffffffffffff16815260200142815250905060008087815260200190815260200160002081908060018154018082558091505060019003906000526020600020906004020160009091909190915060008201518160000160006101000a81548160ff021916908360058111156102605761025f610945565b5b0217905550602082015181600101908161027a9190611048565b5060408201518160020160006101000a81548173ffffffffffffffffffffffffffffffffffffffff021916908373ffffffffffffffffffffffffffffffffffffffff160217905550606082015181600301555050857ff3e2b97d4ea7e7e4522523975cc9b032d1298fdab75ded57720e7544eed107a5868686336040516103049493929190611156565b60405180910390a2505050505050565b61031c61078a565b600080600084815260200190815260200160002090506000818054905011610379576040517f08c379a0000000000000000000000000000000000000000000000000000000008152600401610370906111e2565b60405180910390fd5b806001828054905061038b9190611231565b8154811061039c5761039b611265565b5b90600052602060002090600402016040518060800160405290816000820160009054906101000a900460ff1660058111156103da576103d9610945565b5b60058111156103ec576103eb610945565b5b815260200160018201805461040090610e6b565b80601f016020809104026020016040519081016040528092919081815260200182805461042c90610e6b565b80156104795780601f1061044e57610100808354040283529160200191610479565b820191906000526020600020905b81548152906001019060200180831161045c57829003601f168201915b505050505081526020016002820160009054906101000a900473ffffffffffffffffffffffffffffffffffffffff1673ffffffffffffffffffffffffffffffffffffffff1673ffffffffffffffffffffffffffffffffffffffff168152602001600382015481525050915050919050565b6060600080838152602001908152602001600020805480602002602001604051908101604052809291908181526020016000905b8282101561067d57838290600052602060002090600402016040518060800160405290816000820160009054906101000a900460ff16600581111561056657610565610945565b5b600581111561057857610577610945565b5b815260200160018201805461058c90610e6b565b80601f01602080910402602001604051908101604052809291908181526020018280546105b890610e6b565b80156106055780601f106105da57610100808354040283529160200191610605565b820191906000526020600020905b8154815290600101906020018083116105e857829003601f168201915b505050505081526020016002820160009054906101000a900473ffffffffffffffffffffffffffffffffffffffff1673ffffffffffffffffffffffffffffffffffffffff1673ffffffffffffffffffffffffffffffffffffffff1681526020016003820154815250508152602001906001019061051e565b505050509050919050565b600060205281600052604060002081815481106106a457600080fd5b9060005260206000209060040201600091509150508060000160009054906101000a900460ff16908060010180546106db90610e6b565b80601f016020809104026020016040519081016040528092919081815260200182805461070790610e6b565b80156107545780601f1061072957610100808354040283529160200191610754565b820191906000526020600020905b81548152906001019060200180831161073757829003601f168201915b5050505050908060020160009054906101000a900473ffffffffffffffffffffffffffffffffffffffff16908060030154905084565b6040518060800160405280600060058111156107a9576107a8610945565b5b815260200160608152602001600073ffffffffffffffffffffffffffffffffffffffff168152602001600081525090565b600080fd5b600080fd5b6000819050919050565b6107f7816107e4565b811461080257600080fd5b50565b600081359050610814816107ee565b92915050565b6006811061082757600080fd5b50565b6000813590506108398161081a565b92915050565b600080fd5b600080fd5b600080fd5b60008083601f8401126108645761086361083f565b5b8235905067ffffffffffffffff81111561088157610880610844565b5b60208301915083600182028301111561089d5761089c610849565b5b9250929050565b600080600080606085870312156108be576108bd6107da565b5b60006108cc87828801610805565b94505060206108dd8782880161082a565b935050604085013567ffffffffffffffff8111156108fe576108fd6107df565b5b61090a8782880161084e565b925092505092959194509250565b60006020828403121561092e5761092d6107da565b5b600061093c84828501610805565b91505092915050565b7f4e487b7100000000000000000000000000000000000000000000000000000000600052602160045260246000fd5b6006811061098557610984610945565b5b50565b600081905061099682610974565b919050565b60006109a682610988565b9050919050565b6109b68161099b565b82525050565b600081519050919050565b600082825260208201905092915050565b60005b838110156109f65780820151818401526020810190506109db565b60008484015250505050565b6000601f19601f8301169050919050565b6000610a1e826109bc565b610a2881856109c7565b9350610a388185602086016109d8565b610a4181610a02565b840191505092915050565b600073ffffffffffffffffffffffffffffffffffffffff82169050919050565b6000610a7782610a4c565b9050919050565b610a8781610a6c565b82525050565b6000819050919050565b610aa081610a8d565b82525050565b6000608083016000830151610abe60008601826109ad565b5060208301518482036020860152610ad68282610a13565b9150506040830151610aeb6040860182610a7e565b506060830151610afe6060860182610a97565b508091505092915050565b60006020820190508181036000830152610b238184610aa6565b905092915050565b600081519050919050565b600082825260208201905092915050565b6000819050602082019050919050565b6000608083016000830151610b6f60008601826109ad565b5060208301518482036020860152610b878282610a13565b9150506040830151610b9c6040860182610a7e565b506060830151610baf6060860182610a97565b508091505092915050565b6000610bc68383610b57565b905092915050565b6000602082019050919050565b6000610be682610b2b565b610bf08185610b36565b935083602082028501610c0285610b47565b8060005b85811015610c3e5784840389528151610c1f8582610bba565b9450610c2a83610bce565b925060208a01995050600181019050610c06565b50829750879550505050505092915050565b60006020820190508181036000830152610c6a8184610bdb565b905092915050565b610c7b81610a8d565b8114610c8657600080fd5b50565b600081359050610c9881610c72565b92915050565b60008060408385031215610cb557610cb46107da565b5b6000610cc385828601610805565b9250506020610cd485828601610c89565b9150509250929050565b610ce78161099b565b82525050565b600082825260208201905092915050565b6000610d09826109bc565b610d138185610ced565b9350610d238185602086016109d8565b610d2c81610a02565b840191505092915050565b610d4081610a6c565b82525050565b610d4f81610a8d565b82525050565b6000608082019050610d6a6000830187610cde565b8181036020830152610d7c8186610cfe565b9050610d8b6040830185610d37565b610d986060830184610d46565b95945050505050565b7f496e76616c696420616374696f6e000000000000000000000000000000000000600082015250565b6000610dd7600e83610ced565b9150610de282610da1565b602082019050919050565b60006020820190508181036000830152610e0681610dca565b9050919050565b7f4e487b7100000000000000000000000000000000000000000000000000000000600052604160045260246000fd5b7f4e487b7100000000000000000000000000000000000000000000000000000000600052602260045260246000fd5b60006002820490506001821680610e8357607f821691505b602082108103610e9657610e95610e3c565b5b50919050565b60008190508160005260206000209050919050565b60006020601f8301049050919050565b600082821b905092915050565b600060088302610efe7fffffffffffffffffffffffffffffffffffffffffffffffffffffffffffffffff82610ec1565b610f088683610ec1565b95508019841693508086168417925050509392505050565b6000819050919050565b6000610f45610f40610f3b84610a8d565b610f20565b610a8d565b9050919050565b6000819050919050565b610f5f83610f2a565b610f73610f6b82610f4c565b848454610ece565b825550505050565b600090565b610f88610f7b565b610f93818484610f56565b505050565b5b81811015610fb757610fac600082610f80565b600181019050610f99565b5050565b601f821115610ffc57610fcd81610e9c565b610fd684610eb1565b81016020851015610fe5578190505b610ff9610ff185610eb1565b830182610f98565b50505b505050565b600082821c905092915050565b600061101f60001984600802611001565b1980831691505092915050565b6000611038838361100e565b9150826002028217905092915050565b611051826109bc565b67ffffffffffffffff81111561106a57611069610e0d565b5b6110748254610e6b565b61107f828285610fbb565b600060209050601f8311600181146110b257600084156110a0578287015190505b6110aa858261102c565b865550611112565b601f1984166110c086610e9c565b60005b828110156110e8578489015182556001820191506020850194506020810190506110c3565b868310156111055784890151611101601f89168261100e565b8355505b6001600288020188555050505b505050505050565b82818337600083830152505050565b60006111358385610ced565b935061114283858461111a565b61114b83610a02565b840190509392505050565b600060608201905061116b6000830187610cde565b818103602083015261117e818587611129565b905061118d6040830184610d37565b95945050505050565b7f4e6f206c6f677320666f7220706f737400000000000000000000000000000000600082015250565b60006111cc601083610ced565b91506111d782611196565b602082019050919050565b600060208201905081810360008301526111fb816111bf565b9050919050565b7f4e487b7100000000000000000000000000000000000000000000000000000000600052601160045260246000fd5b600061123c82610a8d565b915061124783610a8d565b925082820390508181111561125f5761125e611202565b5b92915050565b7f4e487b7100000000000000000000000000000000000000000000000000000000600052603260045260246000fdfea26469706673582212209aace1c92d7d4387e92e130e1ff37d3cbc877dd3c4b521e1f4c2bf83accddd5664736f6c63430008180033",
  "linkReferences": {},
  "deployedLinkReferences": {}
}