{
  "_format": "hh-sol-artifact-1",
  "contractName": "BurnRegistry",
  "sourceName": "contracts/BurnRegistry.sol",
  "abi": [
    {
      "inputs": [
        {
          "internalType": "address",
          "name": "_moderationLog",
          "type": "address"
        }
      ],
      "stateMutability": "nonpayable",
      "type": "constructor"
    },
    {
      "anonymous": false,
      "inputs": [
        {
          "indexed": true,
          "internalType": "bytes32",
          "name": "postHash",
          "type": "bytes32"
        },
        {
          "indexed": false,
          "internalType": "string",
          "name": "reason",
          "type": "string"
        },
        {
          "indexed": false,
          "internalType": "address",
          "name": "actor",
          "type": "address"
        }
      ],
      "name": "PostBurned",
      "type": "event"
    },
    {
      "inputs": [
        {
          "internalType": "bytes32",
          "name": "postHash",
          "type": "bytes32"
        },
        {
          "internalType": "string",
          "name": "reason",
          "type": "string"
        }
      ],
      "name": "burnPost",
      "outputs": [],
      "stateMutability": "nonpayable",
      "type": "function"
    },
    {
      "inputs": [],
      "name": "councilMod",
      "outputs": [
        {
          "internalType": "address",
          "name": "",
          "type": "address"
        }
      ],
      "stateMutability": "view",
      "type": "function"
    },
    {
      "inputs": [],
      "name": "daoAddress",
      "outputs": [
        {
          "internalType": "address",
          "name": "",
          "type": "address"
        }
      ],
      "stateMutability": "view",
      "type": "function"
    },
    {
      "inputs": [
        {
          "internalType": "bytes32",
          "name": "",
          "type": "bytes32"
        }
      ],
      "name": "isBurned",
      "outputs": [
        {
          "internalType": "bool",
          "name": "",
          "type": "bool"
        }
      ],
      "stateMutability": "view",
      "type": "function"
    },
    {
      "inputs": [
        {
          "internalType": "bytes32",
          "name": "postHash",
          "type": "bytes32"
        }
      ],
      "name": "isContentBurned",
      "outputs": [
        {
          "internalType": "bool",
          "name": "",
          "type": "bool"
        }
      ],
      "stateMutability": "view",
      "type": "function"
    },
    {
      "inputs": [],
      "name": "moderationLog",
      "outputs": [
        {
          "internalType": "contract IModerationLog",
          "name": "",
          "type": "address"
        }
      ],
      "stateMutability": "view",
      "type": "function"
    },
    {
      "inputs": [
        {
          "internalType": "address",
          "name": "_mod",
          "type": "address"
        }
      ],
      "name": "setCouncilMod",
      "outputs": [],
      "stateMutability": "nonpayable",
      "type": "function"
    },
    {
      "inputs": [
        {
          "internalType": "address",
          "name": "_dao",
          "type": "address"
        }
      ],
      "name": "setDAO",
      "outputs": [],
      "stateMutability": "nonpayable",
      "type": "function"
    }
  ],
  "bytecode": "0x608060405234801561001057600080fd5b50604051610d04380380610d048339818101604052810190610032919061011c565b806000806101000a81548173ffffffffffffffffffffffffffffffffffffffff021916908373ffffffffffffffffffffffffffffffffffffffff16021790555033600160006101000a81548173ffffffffffffffffffffffffffffffffffffffff021916908373ffffffffffffffffffffffffffffffffffffffff16021790555050610149565b600080fd5b600073ffffffffffffffffffffffffffffffffffffffff82169050919050565b60006100e9826100be565b9050919050565b6100f9816100de565b811461010457600080fd5b50565b600081519050610116816100f0565b92915050565b600060208284031215610132576101316100b9565b5b600061014084828501610107565b91505092915050565b610bac806101586000396000f3fe608060405234801561001057600080fd5b50600436106100885760003560e01c80639d3a498a1161005b5780639d3a498a14610129578063e5ec958214610145578063e73a914c14610163578063f84a7db51461017f57610088565b80632131c68c1461008d5780633f169d1f146100ab57806350173344146100db5780636295fe21146100f9575b600080fd5b61009561019b565b6040516100a29190610686565b60405180910390f35b6100c560048036038101906100c091906106e1565b6101c1565b6040516100d29190610729565b60405180910390f35b6100e36101e1565b6040516100f091906107a3565b60405180910390f35b610113600480360381019061010e91906106e1565b610205565b6040516101209190610729565b60405180910390f35b610143600480360381019061013e91906107ea565b61022f565b005b61014d610303565b60405161015a9190610686565b60405180910390f35b61017d600480360381019061017891906107ea565b610329565b005b6101996004803603810190610194919061087c565b6103fd565b005b600160009054906101000a900473ffffffffffffffffffffffffffffffffffffffff1681565b60036020528060005260406000206000915054906101000a900460ff1681565b60008054906101000a900473ffffffffffffffffffffffffffffffffffffffff1681565b60006003600083815260200190815260200160002060009054906101000a900460ff169050919050565b600160009054906101000a900473ffffffffffffffffffffffffffffffffffffffff1673ffffffffffffffffffffffffffffffffffffffff163373ffffffffffffffffffffffffffffffffffffffff16146102bf576040517f08c379a00000000000000000000000000000000000000000000000000000000081526004016102b690610939565b60405180910390fd5b80600260006101000a81548173ffffffffffffffffffffffffffffffffffffffff021916908373ffffffffffffffffffffffffffffffffffffffff16021790555050565b600260009054906101000a900473ffffffffffffffffffffffffffffffffffffffff1681565b600160009054906101000a900473ffffffffffffffffffffffffffffffffffffffff1673ffffffffffffffffffffffffffffffffffffffff163373ffffffffffffffffffffffffffffffffffffffff16146103b9576040517f08c379a00000000000000000000000000000000000000000000000000000000081526004016103b090610939565b60405180910390fd5b80600160006101000a81548173ffffffffffffffffffffffffffffffffffffffff021916908373ffffffffffffffffffffffffffffffffffffffff16021790555050565b6003600084815260200190815260200160002060009054906101000a900460ff161561045e576040517f08c379a0000000000000000000000000000000000000000000000000000000008152600401610455906109a5565b60405180910390fd5b600160009054906101000a900473ffffffffffffffffffffffffffffffffffffffff1673ffffffffffffffffffffffffffffffffffffffff163373ffffffffffffffffffffffffffffffffffffffff1614806105075750600260009054906101000a900473ffffffffffffffffffffffffffffffffffffffff1673ffffffffffffffffffffffffffffffffffffffff163373ffffffffffffffffffffffffffffffffffffffff16145b610546576040517f08c379a000000000000000000000000000000000000000000000000000000000815260040161053d90610a11565b60405180910390fd5b60016003600085815260200190815260200160002060006101000a81548160ff02191690831515021790555060008054906101000a900473ffffffffffffffffffffffffffffffffffffffff1673ffffffffffffffffffffffffffffffffffffffff1663035353b184600185856040518563ffffffff1660e01b81526004016105d29493929190610b04565b600060405180830381600087803b1580156105ec57600080fd5b505af1158015610600573d6000803e3d6000fd5b50505050827fcc2dffeada069a6a4dcbf844a4676ecbd8d8595620bd224e5cdd3c4b37f62c1c83833360405161063893929190610b44565b60405180910390a2505050565b600073ffffffffffffffffffffffffffffffffffffffff82169050919050565b600061067082610645565b9050919050565b61068081610665565b82525050565b600060208201905061069b6000830184610677565b92915050565b600080fd5b600080fd5b6000819050919050565b6106be816106ab565b81146106c957600080fd5b50565b6000813590506106db816106b5565b92915050565b6000602082840312156106f7576106f66106a1565b5b6000610705848285016106cc565b91505092915050565b60008115159050919050565b6107238161070e565b82525050565b600060208201905061073e600083018461071a565b92915050565b6000819050919050565b600061076961076461075f84610645565b610744565b610645565b9050919050565b600061077b8261074e565b9050919050565b600061078d82610770565b9050919050565b61079d81610782565b82525050565b60006020820190506107b86000830184610794565b92915050565b6107c781610665565b81146107d257600080fd5b50565b6000813590506107e4816107be565b92915050565b600060208284031215610800576107ff6106a1565b5b600061080e848285016107d5565b91505092915050565b600080fd5b600080fd5b600080fd5b60008083601f84011261083c5761083b610817565b5b8235905067ffffffffffffffff8111156108595761085861081c565b5b60208301915083600182028301111561087557610874610821565b5b9250929050565b600080600060408486031215610895576108946106a1565b5b60006108a3868287016106cc565b935050602084013567ffffffffffffffff8111156108c4576108c36106a6565b5b6108d086828701610826565b92509250509250925092565b600082825260208201905092915050565b7f4e6f742044414f00000000000000000000000000000000000000000000000000600082015250565b60006109236007836108dc565b915061092e826108ed565b602082019050919050565b6000602082019050818103600083015261095281610916565b9050919050565b7f416c7265616479206275726e6564000000000000000000000000000000000000600082015250565b600061098f600e836108dc565b915061099a82610959565b602082019050919050565b600060208201905081810360008301526109be81610982565b9050919050565b7f4e6f7420617574686f72697a6564000000000000000000000000000000000000600082015250565b60006109fb600e836108dc565b9150610a06826109c5565b602082019050919050565b60006020820190508181036000830152610a2a816109ee565b9050919050565b610a3a816106ab565b82525050565b7f4e487b7100000000000000000000000000000000000000000000000000000000600052602160045260246000fd5b60068110610a8057610a7f610a40565b5b50565b6000819050610a9182610a6f565b919050565b6000610aa182610a83565b9050919050565b610ab181610a96565b82525050565b82818337600083830152505050565b6000601f19601f8301169050919050565b6000610ae383856108dc565b9350610af0838584610ab7565b610af983610ac6565b840190509392505050565b6000606082019050610b196000830187610a31565b610b266020830186610aa8565b8181036040830152610b39818486610ad7565b905095945050505050565b60006040820190508181036000830152610b5f818587610ad7565b9050610b6e6020830184610677565b94935050505056fea2646970667358221220e53f67beb363b889bb4ab2754a90b3a48410346862acba28baab52709ec05fe264736f6c63430008180033",
  "linkReferences": {},
  "deployedLinkReferences": {}
}