{
  "_format": "hh-sol-artifact-1",
  "contractName": "GeoOracle",
  "sourceName": "contracts/GeoOracle.sol",
  "abi": [
    {
      "inputs": [
        {
          "internalType": "address",
          "name": "_ruleset",
          "type": "address"
        },
        {
          "internalType": "address",
          "name": "_moderationLog",
          "type": "address"
        }
      ],
      "stateMutability": "nonpayable",
      "type": "constructor"
    },
    {
      "anonymous": false,
      "inputs": [
        {
          "indexed": true,
          "internalType": "bytes32",
          "name": "postHash",
          "type": "bytes32"
        },
        {
          "indexed": false,
          "internalType": "string",
          "name": "countryCode",
          "type": "string"
        }
      ],
      "name": "GeoBlockCleared",
      "type": "event"
    },
    {
      "anonymous": false,
      "inputs": [
        {
          "indexed": true,
          "internalType": "bytes32",
          "name": "postHash",
          "type": "bytes32"
        },
        {
          "indexed": false,
          "internalType": "string",
          "name": "countryCode",
          "type": "string"
        },
        {
          "indexed": false,
          "internalType": "string",
          "name": "category",
          "type": "string"
        }
      ],
      "name": "GeoBlockSet",
      "type": "event"
    },
    {
      "inputs": [],
      "name": "dao",
      "outputs": [
        {
          "internalType": "address",
          "name": "",
          "type": "address"
        }
      ],
      "stateMutability": "view",
      "type": "function"
    },
    {
      "inputs": [
        {
          "internalType": "bytes32",
          "name": "postHash",
          "type": "bytes32"
        },
        {
          "internalType": "string",
          "name": "countryCode",
          "type": "string"
        },
        {
          "internalType": "string",
          "name": "category",
          "type": "string"
        }
      ],
      "name": "enforceGeoBlock",
      "outputs": [],
      "stateMutability": "nonpayable",
      "type": "function"
    },
    {
      "inputs": [
        {
          "internalType": "bytes32",
          "name": "",
          "type": "bytes32"
        },
        {
          "internalType": "string",
          "name": "",
          "type": "string"
        }
      ],
      "name": "geoBlocked",
      "outputs": [
        {
          "internalType": "bool",
          "name": "",
          "type": "bool"
        }
      ],
      "stateMutability": "view",
      "type": "function"
    },
    {
      "inputs": [
        {
          "internalType": "bytes32",
          "name": "postHash",
          "type": "bytes32"
        },
        {
          "internalType": "string",
          "name": "countryCode",
          "type": "string"
        }
      ],
      "name": "isVisible",
      "outputs": [
        {
          "internalType": "bool",
          "name": "",
          "type": "bool"
        }
      ],
      "stateMutability": "view",
      "type": "function"
    },
    {
      "inputs": [],
      "name": "moderationLog",
      "outputs": [
        {
          "internalType": "contract IModerationLog",
          "name": "",
          "type": "address"
        }
      ],
      "stateMutability": "view",
      "type": "function"
    },
    {
      "inputs": [
        {
          "internalType": "bytes32",
          "name": "postHash",
          "type": "bytes32"
        },
        {
          "internalType": "string",
          "name": "countryCode",
          "type": "string"
        }
      ],
      "name": "overrideUnblock",
      "outputs": [],
      "stateMutability": "nonpayable",
      "type": "function"
    },
    {
      "inputs": [],
      "name": "ruleset",
      "outputs": [
        {
          "internalType": "contract ICountryRulesetManager",
          "name": "",
          "type": "address"
        }
      ],
      "stateMutability": "view",
      "type": "function"
    }
  ],
  "bytecode": "0x60806040523480156200001157600080fd5b50604051620011cc380380620011cc83398181016040528101906200003791906200016b565b816000806101000a81548173ffffffffffffffffffffffffffffffffffffffff021916908373ffffffffffffffffffffffffffffffffffffffff16021790555080600160006101000a81548173ffffffffffffffffffffffffffffffffffffffff021916908373ffffffffffffffffffffffffffffffffffffffff16021790555033600260006101000a81548173ffffffffffffffffffffffffffffffffffffffff021916908373ffffffffffffffffffffffffffffffffffffffff1602179055505050620001b2565b600080fd5b600073ffffffffffffffffffffffffffffffffffffffff82169050919050565b6000620001338262000106565b9050919050565b620001458162000126565b81146200015157600080fd5b50565b60008151905062000165816200013a565b92915050565b6000806040838503121562000185576200018462000101565b5b6000620001958582860162000154565b9250506020620001a88582860162000154565b9150509250929050565b61100a80620001c26000396000f3fe608060405234801561001057600080fd5b506004361061007d5760003560e01c8063cea4580e1161005b578063cea4580e146100ee578063d4bb4ce61461010a578063d4cd732014610126578063d6c494ec146101445761007d565b80630d6c5a55146100825780634162169f146100b257806350173344146100d0575b600080fd5b61009c600480360381019061009791906107f5565b610174565b6040516100a9919061086c565b60405180910390f35b6100ba6101b9565b6040516100c791906108c8565b60405180910390f35b6100d86101df565b6040516100e59190610942565b60405180910390f35b610108600480360381019061010391906109bd565b610205565b005b610124600480360381019061011f9190610a52565b61042a565b005b61012e6105f6565b60405161013b9190610ad3565b60405180910390f35b61015e60048036038101906101599190610a52565b61061a565b60405161016b919061086c565b60405180910390f35b6003602052816000526040600020818051602081018201805184825260208301602085012081835280955050505050506000915091509054906101000a900460ff1681565b600260009054906101000a900473ffffffffffffffffffffffffffffffffffffffff1681565b600160009054906101000a900473ffffffffffffffffffffffffffffffffffffffff1681565b60008054906101000a900473ffffffffffffffffffffffffffffffffffffffff1673ffffffffffffffffffffffffffffffffffffffff16634286e6f9858585856040518563ffffffff1660e01b81526004016102649493929190610b2c565b602060405180830381865afa158015610281573d6000803e3d6000fd5b505050506040513d601f19601f820116820180604052508101906102a59190610b93565b6102e4576040517f08c379a00000000000000000000000000000000000000000000000000000000081526004016102db90610c0c565b60405180910390fd5b6001600360008781526020019081526020016000208585604051610309929190610c5c565b908152602001604051809103902060006101000a81548160ff021916908315150217905550600160009054906101000a900473ffffffffffffffffffffffffffffffffffffffff1673ffffffffffffffffffffffffffffffffffffffff1663035353b1866003878787876040516020016103869493929190610d59565b6040516020818303038152906040526040518463ffffffff1660e01b81526004016103b393929190610e96565b600060405180830381600087803b1580156103cd57600080fd5b505af11580156103e1573d6000803e3d6000fd5b50505050847f9bccdf7a20e14f36605f43219ba25acd0c8130a185a3d1c61bd7db3a9a650b078585858560405161041b9493929190610b2c565b60405180910390a25050505050565b600260009054906101000a900473ffffffffffffffffffffffffffffffffffffffff1673ffffffffffffffffffffffffffffffffffffffff163373ffffffffffffffffffffffffffffffffffffffff16146104ba576040517f08c379a00000000000000000000000000000000000000000000000000000000081526004016104b190610f20565b60405180910390fd5b60006003600085815260200190815260200160002083836040516104df929190610c5c565b908152602001604051809103902060006101000a81548160ff021916908315150217905550600160009054906101000a900473ffffffffffffffffffffffffffffffffffffffff1673ffffffffffffffffffffffffffffffffffffffff1663035353b18460048585604051602001610558929190610f8c565b6040516020818303038152906040526040518463ffffffff1660e01b815260040161058593929190610e96565b600060405180830381600087803b15801561059f57600080fd5b505af11580156105b3573d6000803e3d6000fd5b50505050827f43f1a21e14bf0acd6c5c5e7520afa7f865b3388e9a12fc2446877d89d95b4ac883836040516105e9929190610fb0565b60405180910390a2505050565b60008054906101000a900473ffffffffffffffffffffffffffffffffffffffff1681565b600060036000858152602001908152602001600020838360405161063f929190610c5c565b908152602001604051809103902060009054906101000a900460ff161590509392505050565b6000604051905090565b600080fd5b600080fd5b6000819050919050565b61068c81610679565b811461069757600080fd5b50565b6000813590506106a981610683565b92915050565b600080fd5b600080fd5b6000601f19601f8301169050919050565b7f4e487b7100000000000000000000000000000000000000000000000000000000600052604160045260246000fd5b610702826106b9565b810181811067ffffffffffffffff82111715610721576107206106ca565b5b80604052505050565b6000610734610665565b905061074082826106f9565b919050565b600067ffffffffffffffff8211156107605761075f6106ca565b5b610769826106b9565b9050602081019050919050565b82818337600083830152505050565b600061079861079384610745565b61072a565b9050828152602081018484840111156107b4576107b36106b4565b5b6107bf848285610776565b509392505050565b600082601f8301126107dc576107db6106af565b5b81356107ec848260208601610785565b91505092915050565b6000806040838503121561080c5761080b61066f565b5b600061081a8582860161069a565b925050602083013567ffffffffffffffff81111561083b5761083a610674565b5b610847858286016107c7565b9150509250929050565b60008115159050919050565b61086681610851565b82525050565b6000602082019050610881600083018461085d565b92915050565b600073ffffffffffffffffffffffffffffffffffffffff82169050919050565b60006108b282610887565b9050919050565b6108c2816108a7565b82525050565b60006020820190506108dd60008301846108b9565b92915050565b6000819050919050565b60006109086109036108fe84610887565b6108e3565b610887565b9050919050565b600061091a826108ed565b9050919050565b600061092c8261090f565b9050919050565b61093c81610921565b82525050565b60006020820190506109576000830184610933565b92915050565b600080fd5b600080fd5b60008083601f84011261097d5761097c6106af565b5b8235905067ffffffffffffffff81111561099a5761099961095d565b5b6020830191508360018202830111156109b6576109b5610962565b5b9250929050565b6000806000806000606086880312156109d9576109d861066f565b5b60006109e78882890161069a565b955050602086013567ffffffffffffffff811115610a0857610a07610674565b5b610a1488828901610967565b9450945050604086013567ffffffffffffffff811115610a3757610a36610674565b5b610a4388828901610967565b92509250509295509295909350565b600080600060408486031215610a6b57610a6a61066f565b5b6000610a798682870161069a565b935050602084013567ffffffffffffffff811115610a9a57610a99610674565b5b610aa686828701610967565b92509250509250925092565b6000610abd8261090f565b9050919050565b610acd81610ab2565b82525050565b6000602082019050610ae86000830184610ac4565b92915050565b600082825260208201905092915050565b6000610b0b8385610aee565b9350610b18838584610776565b610b21836106b9565b840190509392505050565b60006040820190508181036000830152610b47818688610aff565b90508181036020830152610b5c818486610aff565b905095945050505050565b610b7081610851565b8114610b7b57600080fd5b50565b600081519050610b8d81610b67565b92915050565b600060208284031215610ba957610ba861066f565b5b6000610bb784828501610b7e565b91505092915050565b7f43617465676f7279206e6f742062616e6e656420696e20726567696f6e000000600082015250565b6000610bf6601d83610aee565b9150610c0182610bc0565b602082019050919050565b60006020820190508181036000830152610c2581610be9565b9050919050565b600081905092915050565b6000610c438385610c2c565b9350610c50838584610776565b82840190509392505050565b6000610c69828486610c37565b91508190509392505050565b7f426c6f636b656420696e20000000000000000000000000000000000000000000600082015250565b6000610cab600b83610c2c565b9150610cb682610c75565b600b82019050919050565b7f2028000000000000000000000000000000000000000000000000000000000000600082015250565b6000610cf7600283610c2c565b9150610d0282610cc1565b600282019050919050565b7f2900000000000000000000000000000000000000000000000000000000000000600082015250565b6000610d43600183610c2c565b9150610d4e82610d0d565b600182019050919050565b6000610d6482610c9e565b9150610d71828688610c37565b9150610d7c82610cea565b9150610d89828486610c37565b9150610d9482610d36565b915081905095945050505050565b610dab81610679565b82525050565b7f4e487b7100000000000000000000000000000000000000000000000000000000600052602160045260246000fd5b60068110610df157610df0610db1565b5b50565b6000819050610e0282610de0565b919050565b6000610e1282610df4565b9050919050565b610e2281610e07565b82525050565b600081519050919050565b60005b83811015610e51578082015181840152602081019050610e36565b60008484015250505050565b6000610e6882610e28565b610e728185610aee565b9350610e82818560208601610e33565b610e8b816106b9565b840191505092915050565b6000606082019050610eab6000830186610da2565b610eb86020830185610e19565b8181036040830152610eca8184610e5d565b9050949350505050565b7f4e6f742044414f00000000000000000000000000000000000000000000000000600082015250565b6000610f0a600783610aee565b9150610f1582610ed4565b602082019050919050565b60006020820190508181036000830152610f3981610efd565b9050919050565b7f556e626c6f636b65642062792044414f20696e20000000000000000000000000600082015250565b6000610f76601483610c2c565b9150610f8182610f40565b601482019050919050565b6000610f9782610f69565b9150610fa4828486610c37565b91508190509392505050565b60006020820190508181036000830152610fcb818486610aff565b9050939250505056fea264697066735822122003dfd3d66c50a13d55b6d5f5784368977d9fa7f9f07c2419e970c1487110016964736f6c63430008180033",
  "linkReferences": {},
  "deployedLinkReferences": {}
}